:1000000008100020C1010000E91F00005B21000072
:10001000E91F0000E91F0000E91F0000E91F0000C0
:10002000E91F0000E91F000060280000E91F000030
:10003000E91F0000A8280000E91F0000E91F0000D8
:10004000E91F0000E91F0000E91F0000E91F000090
:10005000E91F0000E91F0000E91F0000E91F000080
:10006000E91F0000E91F0000E91F0000E91F000070
:10007000E91F0000E91F0000E91F0000E91F000060
:10008000E91F0000E91F0000E91F0000E91F000050
:10009000E91F0000E91F0000E91F0000E91F000040
:1000A000E91F0000E91F0000E91F0000E91F000030
:1000B000E91F0000E91F0000E91F0000E91F000020
:1000C000E91F0000E91F0000E91F0000E91F000010
:1000D000E91F0000E91F0000E91F0000E91F000000
:1000E000E91F0000E91F0000E91F0000E91F0000F0
:1000F000E91F0000E91F0000E91F0000E91F0000E0
:10010000E91F0000E91F0000E91F0000E91F0000CF
:10011000E91F0000E91F0000E91F0000E91F0000BF
:10012000E91F0000E91F0000E91F0000E91F0000AF
:10013000E91F000010B5054C237833B9044B13B107
:10014000044800E000BF0123237010BD70100020A0
:1001500000000000FC29000008B5034B1BB1034957
:10016000034800E000BF08BD00000000741000203C
:10017000FC290000064B0748DA1C121AC11E22F0A7
:100180000302994288BF0022034902F0D3BA00BF9C
:100190007010002010100020082A0000064B0748AD
:1001A000DA1C121AC11E22F00302994288BF0022F3
:1001B000002102F0CCBA00BF4813002070100020CC
:1001C00008B5084B83F30A88074B084AC3E90022A5
:1001D00000F00EF800F040FCFFF7CCFFFFF7DEFF69
:1001E00000F0CCFB0800002008100020A5EDF5FE73
:1001F000044B054A9A60D3F8882042F47002C3F891
:100200008820704700ED00E0000000000023024A53
:100210001370024A13707047C2100020C3100020F0
:1002200038B503780546042B0C4650D008D8012B6E
:100230000AD0032B50D0182340F6031023700DE092
:10024000182B49D0432BF5E7264B42781978D9B9BA
:10025000012A04D0152340F60410237038BD1A700B
:10026000AB781A44FF2AF5D100228021E81C02F065
:100270000AF995F88320C0F30F239A4216D015236C
:1002800040F602102370E9E7174B1B78934204D124
:10029000062340F606102370E0E70133DBB29342F9
:1002A000DED0152340F605102370D7E795F884308B
:1002B000C0B2834204D0152340F601102370CDE76D
:1002C0006A78094B00201A7006232370C6E70623BC
:1002D00040F607100B70C1E7182340F60810237092
:1002E000BCE700BFC3100020C21000200149024833
:1002F00000F03AB8782700008C10002010B592B0BA
:1003000047221849684602F015FA01F000FF0A2258
:10031000C0F30363092B8CBF373330338DF81430AF
:10032000C0F30343B3FBF2F102FB113300F00F0003
:1003300030338DF81730B0FBF2F302FB130001F1FC
:100340003004303003F130018DF819108DF81A00A7
:100350000122472168468DF8164000F021FD00205B
:1003600012B010BD882700002DE9F04F0024ADF534
:10037000277D4FF49472064688465CA821468DF886
:10038000134002F0E4F92146682206A802F0DFF9E2
:100390002146682220A802F0DAF93C2700F0F4FB9D
:1003A00001244FF0FF35DFF82C93DFF82CA3DFF8A2
:1003B0002CB3062CFDD8DFE814F00B000F00200052
:1003C00043005D005301BF000424F2E70446F0E758
:1003D000FFF794FF0124ECE74FF47A7105A801F0D0
:1003E00051FF40B99DF81430313BDBB2022B8EBF78
:1003F0000446B44AD45C3C27DBE701221121B24811
:1004000000F0CEFC2C220021304602F0A0F920237F
:1004100020AA06A95CA800F063FE0024FF230121A6
:1004200005207370748000F0CFFB00F005FD18B15B
:100430000121204600F076FDFFF7E8FE0324B8E72F
:10044000432001F0D7FD00214FF47A7000F0BCFB8F
:1004500000F0F2FC18B900F0DDFB0028F8D000F045
:10046000EBFC0028B0D1013FA3D1182001F0C2FD60
:1004700000249EE7002185220DF1E90002F067F9D2
:10048000002140F6B83000F09FFB00F0D5FC78B3B7
:100490004FF47A730093012305AA19460DF1E90080
:1004A00000F0EEFC9DF8E930012B0DD140F6B8329A
:1004B000842100920DF1EA0005AA00F0E1FC059B01
:1004C0000546842B18D1C8B90DF113010DF1E900CF
:1004D000FFF7A6FE40F607139842054614D1B378FD
:1004E0000BB1F37813B918238DF8133006241DE0EF
:1004F00000F090FB0028C8D040F2047515208DF85C
:10050000130001F077FD54E780B99DF8E930012B25
:100510000CD180233146CDF800803BAA5CA800F0C6
:1005200019FE054610B118238DF813309DF81300FD
:10053000182808BF0624E4E70121002000F0F2FC9F
:1005400001210A2000F040FB9DF813300122062B08
:1005500008D140F607139D4204D11B215B4800F0EF
:100560001FFC85E71A21504600F01AFCA5F5106320
:10057000B3F5E06F4FF0010222D21121544800F090
:100580000FFC40F606139D4222DD9DF813309F2B91
:100590004FEA13108CBF3730303000F039FC9DF833
:1005A000130000F00F0009288CBF3730303000F006
:1005B0002FFC0D2000F02CFC0A2000F029FC57E74E
:1005C0001021584600F0ECFB40F606139D420BDC70
:1005D000B5F5106FD9DDA5F60213042B2CD8DFE892
:1005E00003F02D25292F3100A5F58053013B092B60
:1005F000CBD8A5F58053013B092BC6D801A252F8F0
:1006000023F000BF590600008B0500008B05000099
:100610005D0600004D06000055060000590600006A
:1006200051060000490600005906000021238DF8FC
:100630001330AAE72223FAE72323F8E72423F6E777
:100640002523F4E72723F2E74123F0E74323EEE7EE
:100650004423ECE74523EAE74F23E8E75023E6E7A6
:10066000B3784BB3F3783BB3337813F004040AD078
:10067000B06A01F050FD00283FF4A8AE4FF40040EE
:1006800000F01CF9F4E69B0711D57368039301F0A1
:100690003EFD039B834204D94FF40040716A00F091
:1006A000C9F801221321484600F07AFB81E640F2A6
:1006B000012000F03FFAF4E740F2032000F03AFA9C
:1006C000D6E600BFCF2700002A2800000F28000030
:1006D0003B280000D2270000F5270000E527000096
:1006E000F0B5421ED11C034685B019D86E460D4C9C
:1006F00004F11007354620686168083403C5BC4220
:100700002E46F7D10DF10F010F3311F8010912F840
:10071000014F844204D19A42F7D1012005B0F0BDC7
:100720000020FBE74C2800002DE9F0410368044657
:1007300003F16043B3F5C03F4FF00000A0B029D8EB
:10074000826A636816699E4224D8B3F5801F21D857
:10075000656B06F14003AB4268D8B5F5801F65D8DC
:100760002846FFF7BDFF002860D0284601F0B3FC03
:1007700080B16B6973B1022B0FD1AB69C4F1040175
:1007800019444FF0FF32204601F018F8284BC31AE5
:100790005842584120B0BDE8F08140F20463284639
:1007A0000493FFF79DFF08B90020F3E7284601F006
:1007B00092FC0028F8D00027D7F834804046FFF795
:1007C0008FFF0028F0D0503EB045EDD8284605A94F
:1007D00001F088FC0028E7D0BA6A059B12699A42AA
:1007E000E2D89C42E0D8B3F5801FDDD806A801F01E
:1007F0008BFE059A2146121B06A801F08FFE06A863
:1008000001F08EFE059C01F067F8039001F07CF882
:1008100021460090039B04F1200206A800F0E2FFAD
:1008200004900498B0FA80F04009B3E70120B1E7E2
:10083000E320BBDE70B54FF0FF3290B005460C46AA
:1008400000F0BCFF1A4B98422ED11C22002101A8B7
:1008500001F07DFF174B29466846043C009301F0E8
:10086000B4FE2146684601F0B0FE684601F0B6FECF
:1008700001F0D1FB0646B8B940F2022000F04EF973
:100880001C22314609A801F062FF0B4B294608A83B
:10089000089301F09AFE08A8214601F096FE08A8E8
:1008A00001F09CFE01F0B7FB002010B070BD00BF4E
:1008B000E320BBDE010005430100064330B50446DA
:1008C00091B01C22002101A801F041FF114B2146EB
:1008D0006846009301F079FE684601F07FFE01F062
:1008E0009AFB054698B940F2022000F017F91C2245
:1008F000294609A801F02BFF074B08A821460893B9
:1009000001F063FE08A801F069FE01F084FB0020FD
:1009100011B030BD000002430000034310B58CB09D
:100920001C220446002105A801F011FF0A4B019486
:10093000049301230293094B01A904A8039301F036
:100940003AFE04A801F04AFE01F065FBB0FA80F01F
:1009500040090CB010BD00BF000008430400002097
:1009600040B139B100230B60034B03600B6843F4C3
:1009700000530B60704700BF1424004013B501A85A
:1009800001F000FA9DF80530012B27D12B4A936D19
:10099000DB0313D4536B23F4FF0323F4FE4343F42C
:1009A000BC1343F4A0635363136B23F4704343F409
:1009B00040431363136B43F4E06313639DF8043007
:1009C00063B94FF000531B681D4B1B681D4B1B6820
:1009D0001D4B1B681D4B1B681D4B1B681D4AD2F825
:1009E000803043F00303C2F8803001F0A7FB00F031
:1009F0007FF801F0FAFA01F0FAFA18B14FF4017039
:100A000000F098F8FFF772FC044601F0F2FA1CB10E
:100A100040F203739C4203D140F2012000F08AF8B7
:100A2000A4F20574012C94BF40F203204FF401702E
:100A300000F080F8002002B010BD00BF00C00040F0
:100A4000004000200080002000C0002000000120A5
:100A5000004001200080004013B501244FF04023E6
:100A60008DF806408DF80740D3F894305B060BD51F
:100A700000F074F8A0F2022080B2072804D804FA2B
:100A800000F010F0C90F02D100F0AEFA20B100233F
:100A90008DF806308DF807304FF480435B680133E2
:100AA00008D14FF4027000F039F800238DF80630B9
:100AB0008DF807309DF8073063B14FF48040FFF7A1
:100AC00033FE8DF806009DF806301BB94FF4027016
:100AD00000F024F89DF806302BB14FF48040034B12
:100AE000986001F02FFB02B010BD00BF00ED00E0E8
:100AF0004CF23C32014B5A80704700BF000000208E
:100B00004AF6C030044B5B8823F00F039BB21B1ADC
:100B100058425841704700BF00000020044A08B501
:100B20001080FFF7EDFF10B94FF20F03538008BD9F
:100B30000000002008B5FFF7F1FFBFF34F8F054914
:100B4000054BCA6802F4E0621343CB60BFF34F8FDA
:100B500000BFFDE700ED00E00400FA054FF20F01D1
:100B6000084B5A888A4201D1188870473AB91B88C5
:100B700040F20220012B18BF4FF4007070474FF471
:100B800000707047000000201FB500F0E9F94FF435
:100B90007A23B0FBF3F00A4B10221860002168465C
:100BA00001F0D5FD01238DF8003040F2FF33694696
:100BB0000448ADF8023001F036FD05B05DF804FBE5
:100BC000B81000200080044030B50D4D0D4A2D684E
:100BD000536A15FB00F010FA83F09CB280B2A04279
:100BE0002CBF00240124084B1880084B1C7011B145
:100BF000536A8342FCD1012305494B61936130BDA7
:100C0000B810002000800440C0100020C410002054
:100C100000A00440094B0A4A5869127800F001000C
:100C20000AB108B9704738B9586A064B1B88984210
:100C300034BF00200120704701207047008004402D
:100C4000C4100020C01000202DE9F0410126DFF87B
:100C500020813F4BD8F800203E4F02F13C019960C3
:100C600002F124037B627B6002F580535E6040F6F4
:100C7000AA630024536141F20503374D374802F55A
:100C800000519460D465D3601461D461D4648864E5
:100C9000C5F8AC45C5F8C445C5F8BC45C5F8B4456C
:100CA000C5F8B845D3609368936000F059F92C4BB0
:100CB00005211A6F4FF4E113C2F380223244B0FBD6
:100CC000F2F202F5E1425201B2FBF3F2254B203A77
:100CD00003EAC202D8F800302046DA613346042223
:100CE00000F030FF334632460621204600F02AFF4E
:100CF0001423C5F8AC354FF4A023C5F8C4354FF420
:100D0000C0230522C5F8BC35D8F800304FF4802147
:100D10005A614FF0F053144A56609360134B54627B
:100D2000946314645465196002311466D4651767BE
:100D300059600321A3F50053C2F89040C2F88C40DB
:100D400059630223966402F580521361BDE8F08175
:100D5000501000201010002000C00340FFFF0100D1
:100D600000800040F8FF7F00000004400040044085
:100D700060100020084B586B10F0020006D00222D1
:100D80009A6203F5005301205A637047DB6A9B07A0
:100D9000FBD40222014BF6E700000440002004408F
:100DA0007F2938B50446154624D8FFF7E3FF20B362
:100DB0002046134B621890420DD1124B01391A880C
:100DC00061F30E121A80104AC2F8A0300223936415
:100DD00035B9002038BD10F8014B03F8014BEAE7A4
:100DE000FFF7C8FF0028FBD0084B1A6893699B06E1
:100DF000FCD5EEE741F20310ECE741F20620E9E70B
:100E0000C512002050100020000004406010002097
:100E1000014608B5FFF7AEFF0028FBD0054B1B6865
:100E20009A695006FCD5D9639A699206FCD50020D0
:100E300008BD00BF601000200E4BD86E40F20113B9
:100E400098420FD040F2022398420DD00A4BC01AAC
:100E50000A4B1B6883420AD02ABFC3F50073C01A2D
:100E6000C01870470020F3E74FF48070F0E70020CF
:100E7000704700BF00000440C5100020BC100020D7
:100E80002DE9F843089F04460D461646F3B9FFF7CF
:100E9000D3FFA84228BF284600214FF001084FF099
:100EA00002091D4ADFF878E013681C4F04EB000CC0
:100EB00064451DD101B1136006B1306041F20423D5
:100EC000A84234BF18460020BDE8F8832FB1FFF7D1
:100ED0005BFE00213846FFF777FEFFF7ADFFA84223
:100EE000D5D2002FF9D0FFF795FE0028F5D0CEE738
:100EF0001EF803100133B3F5007F04F8011B04D181
:100F00000023C7F810900121D2E7B3F5807F08BF16
:100F1000C7F81080F7E700BFBC10002000100440A5
:100F2000C510002010B10222094B9A6271B1012252
:100F30000020074B07499A624A6307491967074926
:100F400008609A64022203F580531A6100207047FA
:100F5000000004400020044010100020BC100020BD
:100F600030B51A4B87B001AA03F110051446186872
:100F70005968083303C4AB422246F7D11B7823706B
:100F8000134B1B6F03F00703032B1BD0114A93680D
:100F9000C3F30443102B17D818336B4413F8143CD5
:100FA0000D480E4943438B4203D19268C2F301625C
:100FB000D340074A106FC0F301300130B3FBF0F0AB
:100FC00007B030BD064BF4E7064BF2E7F828000007
:100FD000008000400000014040420F0000093D0039
:100FE00000F04902C0EA2101002313B5042219468A
:100FF000012000F0A7FD00230093009B632B17DD69
:10100000002302221946012000F09CFD00230193D9
:10101000019BB3F5FA7F0EDB084B01205C6C0023CB
:101020001A46194600F08EFD04F0010002B010BD12
:10103000009B0133E0E7019B0133E8E700C0034078
:1010400030B500220C24064B04FB02F1CD5885423A
:1010500001D1581830BD01320C2AF5D10020F9E732
:101060000C2900007FB50023CDE900330823154685
:101070000DEB0302044601F030F941F203039842FC
:10108000064626D194F8433063B10822E06C0DEB9C
:10109000020101F043FA08230DEB03021146A06C94
:1010A00001F021FA039A029B6A6094F843202B60B6
:1010B0005AB9094A934208D0084A934205D00822F7
:1010C000E06C0DEB020101F029FA6B682365002347
:1010D0006365304604B070BDF70A0AF7FC0404FCEF
:1010E0002DE9F04100254FF0FF37044688461646AB
:1010F00003F0200380F842301822FF21C0E9185580
:10110000A0F8405080F84350A0F8445080F8465072
:10111000C0F88870683001F01AFB88222946C4E9BB
:101120001286C4F88070C4F8847004F1900001F055
:101130000EFB074BC4F82071C4E9463584F82451EE
:1011400016B1304601F0E0F90020BDE8F08100BFA3
:10115000000101012DE9F04FA5B09846CDE911231A
:10116000002304460E462E9D1393139A424501D345
:101170000020D1E094F84630132BF7D8DFE813F0C5
:101180006700B400AE00520039002D00C1013900E3
:10119000B901390073013900B901A802180314001C
:1011A00012014F024F0216034FF00009636D0F2B1F
:1011B00000F298800127102314AA2046CDF804904D
:1011C000009711A901F089F841F203030890089AE9
:1011D0009A4200F0D980089B45E04FF00109D4E91C
:1011E0001432934200F2E88084F8469041F20303FF
:1011F00039E04FF00109D4E91417B94272D9C91B7B
:10120000DDE91272BF1A94F840200329174440F216
:101210008181032F00F28181204611A901F03CF861
:10122000002320E00127636D072BDFD8082314AAD1
:101230002046CDE9007711A901F04FF841F20303F0
:101240000B900B9A9A4200F023810B9B0BE014AA9F
:10125000204611A9FFF706FF41F203020590059B06
:10126000934208D0059B049341F20303049A9A42E7
:101270003FF47BAF4FE0159A149922650022626516
:10128000A24A914240F00F81022284F84620EAE708
:10129000012314AA009320460823019711A901F005
:1012A0001CF841F203030690069A9A4201D0069B6D
:1012B000D9E7149B03F07F43B3F1407F05D013239C
:1012C00084F8463041F20903CDE7159BD90706D5CE
:1012D00094F8423043F0010384F842300027636DF4
:1012E000072BD5D9012309E1204614AA11A9FFF73C
:1012F000B9FE41F203030790079F9F420FD0079F5B
:1013000041F203030497049A9A423FF42EAF049BE0
:101310000BB10023F370049825B0BDE8F08F14984A
:10132000FFF78EFE28B9132341F2080784F84630F0
:10133000E6E7437994F824219A4205D9132341F230
:101340000E0784F84630DBE7026871498A4205D00F
:101350000289D20748BF013384F8243194F842301F
:10136000D9070DD5028994F84330920706D53BB1D1
:10137000132341F2010784F84630C1E7002BF7D070
:10138000037984F84630BBE7D4F848A000F0D4FADB
:1013900080230221CDE9000315AA3B46504601F007
:1013A0007FF803E7226D0123A265002284F8433011
:1013B000E26584F84630D8E614AA2046CDE90099C3
:1013C00011A900F08AFF41F203030990099A9A4299
:1013D00001D0099B47E714AF06F108030DF1680C33
:1013E0003A4603CA624518605960174603F108037C
:1013F000F6D110681860337843F001033370EEE6DD
:10140000337843F004033370179BB36273785F073C
:1014100026D5EB238DF8503017238DF85130A623B5
:101420008DF852305E2300208DF85330236D6066B6
:10143000C4F8843094F8453043F0020384F8453012
:10144000EF686FB104222B6814A9B8470822606EB8
:101450002B68EF6816A91044B847636E10336366B3
:101460000B2384F84630636D072B3FF6BFAE012394
:1014700016AACDE900332046082311A900F02DFF5C
:1014800041F203030A900A9A9A42B9D00A9BEAE60B
:101490003378159A43F002033370149B7360236D05
:1014A000083B73622AB1132384F8463041F20103EA
:1014B000D9E6042384F8463094F84530626643F058
:1014C000010384F84530AEE6042314AA2046CDE992
:1014D000007711A900F001FF41F203030C900C9A70
:1014E0009A4201D00C9BBEE6236D042B02D9149BBB
:1014F00023660127636D032BE6D9092384F8463060
:1015000074E600236366072353E700BFEB17A603C7
:10151000F90707F98F42FFF47FAE402928BF402129
:101520008F4228BF0F46032F88BF27F003073B4693
:1015300014AA2046CDE9009911A900F0CEFE41F28F
:1015400003030D900D9A9A4201D00D9B8BE694F8FF
:1015500046A0BAF1070F04D1D5F808B0BBF1000FCF
:101560001BD1042FC7F1040B88BF4FF0000B14AB45
:101570005A46FF21D81901F0EAF8BAF1090FBB4425
:1015800014D12B465A46204614A900F01BFF0D909B
:101590000D9B002B3FF42FAED7E73A462B68606EC9
:1015A00014A9D847626E3A44626624E6BAF1040F81
:1015B00021D1737898077FF51EAEEB68002B3FF4BE
:1015C0001AAE626E042A0BD80BEB0203062B07D966
:1015D00015AB9B1A1A68C4F884204FF0FF321A60CA
:1015E0005A462B68606EEF6814A9B847626E0BEB21
:1015F00002076766FFE5BAF10B0F7FF4FCAD737865
:1016000059077FF5F8ADD5F80CA0BAF1000F3FF4FB
:10161000F2AD5A462B68606E14A9D047E6E7002168
:101620008A6A496B1269503A91423FF63FAF112BDB
:101630000FD194F81831002B7FF454AE41F2060319
:101640000E930E9A9A4202D1132384F846300E9BD1
:1016500009E694F84430002B7FF444AECDE9003322
:1016600014AA4023204611A900F037FE41F20303DB
:101670000E900E9A9A42EAD1E06C00F051FF94F875
:101680001831A3B104F1B403E06C00931CAA04F177
:10169000940314A900F0A6F80E900E9B9BB10023B2
:1016A000F370132384F8463041F20603DBE5E76C60
:1016B00000F012F9039000F027F9039B00901CAA98
:1016C000384614A9E6E70123F37084F8443009E6AC
:1016D000002314AACDE900332046042311A900F009
:1016E000FCFD41F203030F900F9A9A4202D00F9B28
:1016F000049310E6D4F888202F4B9A4205D0132388
:1017000084F8463041F20503F2E70123F37094F8C0
:101710004530DA0707D5EF682FB104222B68104651
:1017200004F18401B84794F845309B0707D5EF686A
:101730002FB104222B68104604F18401B847236EB0
:101740006BB36F685FB34FF0FF3304F18001042285
:1017500010A81093039100F0DDFF28B1042248F295
:1017600004002B680399B84704F16809042249462C
:1017700010A800F0CFFF90B100239B6A1422D3F889
:10178000108004F16C0108F10800D5E90037B84772
:10179000D5E900370422494608EB0200B847012387
:1017A000B3700E2384F846300023A1E70023F370C2
:1017B00041F20700B0E500BFE320BBDE30B50124F5
:1017C0000025074B01445C609D601A61DC60884223
:1017D00001D1586A30BD10F8012B1A62F7E700BF3B
:1017E000008008402DE9F04399B00E4615461C468E
:1017F0000746DDF88090002861D000295FD0002ADC
:101800005DD0002B58D02F4B2F4AB9F1000F14BFD9
:10181000984690461C22002111A800F098FF2B4BFF
:10182000414610A8109300F0D0FE202110A800F02F
:10183000CCFE0122264B019402920393CDF8109026
:101840000592069354B1B9F1000F07D001A910A871
:1018500000F0A7FE04A910A800F0A3FE0797012737
:101860001B4C07A910A80897099400F09AFE0AA932
:1018700010A80A960B970C940D950E970F9400F0F4
:1018800090FE0DA910A800F08CFE10A800F0A6FE96
:10189000104B00934FF098435A6CD202FCD55B6D0D
:1018A00040F2046003F470230093009B002B08BFF8
:1018B000002019B0BDE8F083DFF80C80AAE740F201
:1018C0000160F6E71F2400801F24FC84000001064D
:1018D000200000207856341200B591B00023402239
:1018E00069464FF4807000F027FAB0F5A02F07D0BA
:1018F000B0F5302F034818BF002011B05DF804FB8D
:101900000048FAE74CE30F0000B591B000234022F5
:1019100069464FF4807000F00FFAB0F5A02F07D0A1
:10192000B0F5302F034818BF002011B05DF804FB5C
:101930000048FAE76CE30F000048704786E20F00AA
:101940002DE9F34799460A9B0C46196805463F293D
:10195000164642D85A68002A41D0224A002E14BFA7
:10196000B046904601F03F07091928BF5A68196030
:1019700024BF01325A60AFB1C7F1400AA24521D855
:101980002946524609EB070000F0D4FE01234146E8
:1019900000934A463346002000F086F8B046403CAB
:1019A00055443C443F2C0CD9A3092A460093414698
:1019B0003346002000F078F824F03F031D4404F083
:1019C0003F0400272CB12246294609EB070000F00E
:1019D000B1FE002002B0BDE8F0879046C2E7DFF814
:1019E0000480BFE79C29000030B405460846114634
:1019F0001A46DDE9023425B931B1029430BCFFF753
:101A00009FBF024830BC70470846FBE780AFFFFF2E
:101A10002DE9F0411746146886B01E46E3008DF8A4
:101A20000F30630952688DF80E30630B8DF80D305E
:101A3000630D8DF80C30D30003EB54738DF80B302D
:101A400004F03F045309372C8DF80A304FEA523323
:101A50004FEA525205468DF80820884694BFC4F1DB
:101A60003802C4F17802CDE900178DF809300D492C
:101A700003460020FFF7B8FF082143462A46009797
:101A80000DEB0100FFF75CFF284605F1200350F83D
:101A9000042B984246F8042BF9D1002006B0BDE88B
:101AA000F08100BFBC290000F0B593B00E46174688
:101AB0000446202200210AA81D4600F048FE01200D
:101AC0004FF00052019702900392049605900692FF
:101AD000079508900992002C2FD1189C184BA4014F
:101AE00021460AA80A9300F070FD03990AA80C4346
:101AF0000394069B04A943F020030693099B43F03B
:101B00002003099300F04DFD01A90AA800F049FD4A
:101B100007A90AA800F04FFD0AA800F05FFD4FF0EA
:101B200098435A6CD202FCD55B6D13F4702F0CBF36
:101B300000206FF06F0013B0F0BD6FF07100FAE796
:101B400000040103F8B504460D461F4616464AB187
:101B500001238B403021194A01FB0022FFB141F2E1
:101B60001001535004EB4403072D4FF00F014FEACF
:101B7000031317D8A80006FA00F281401048184451
:101B800000F0F5FC56B9012130230C4801FA05F5A7
:101B900003FB040077B141F21003C550F8BD42F2D7
:101BA0001001DEE7A5F10800800006FA00F281408E
:101BB0000448E4E742F21003EFE700BF00C003402F
:101BC00004C003400CC00340F0B5114A114C124E42
:101BD00000F00105E3695F0713D40DB9334213D157
:101BE00003EA00078F4207D10B4A1A40002A14BFAC
:101BF0006FF001000020F0BD013AEBD16FF0020060
:101C0000F9E74FF0FF30F6E76FF00100F3E700BFB0
:101C100080969800000003400200010038B541F6AC
:101C2000713301220C4C0021E569E3630B4B05F491
:101C30008035DA600223606121202361FFF7C4FF51
:101C400010B92120FFF7C0FF0122054BDA600DB16A
:101C50000023E36338BD00BF0000034000100340D1
:101C6000002003402DE9F04F06464FF45025012097
:101C70002A4CDFF8B4C041F67137CCF8040044F8C0
:101C8000265030250024DFF8A4E0DFF8A49005FBFF
:101C900006E5EC652C662C67214CDFF898A0D4F89B
:101CA0001C80E763E76800FA06F60743E7604BB974
:101CB000E26818F4803F22F00102E26000D0E363A2
:101CC000184628E001F5005000EA0900401A984241
:101CD00028BF18466161D4F81CB087081BF0040FB8
:101CE00017D1013F3F0147F060576F66AA66C5F8FC
:101CF0006CA0CCF82460DEF834703E42FBD0094F73
:101D000001447E630427CCF82860024427611B1A33
:101D1000CDE74FF0FF30BDE8F08F00BF004004403A
:101D20000000034000200440001004400000044074
:101D300000E0FFFF18000340F0B507460F4D1048C4
:101D40008DB0002B08BF05460E46144600211C220C
:101D500005A800F0FCFC012304A801A93D4344F0C0
:101D60000054019604950293039400F024FC00F0C3
:101D700035FC00F00DFC0DB0F0BD00BF01000AFF06
:101D8000010008FF054B5B69C3F38512827003F005
:101D90003F021B0B42700370704700BF00C007403A
:101DA0002DE9F04104681E4624F04003802B0546CF
:101DB0008846174692B002D0B4F5807F43D11C22EA
:101DC00000210BA800F0C3FC224A234B0121B8F1EB
:101DD000010F18BF13460A932B1D0193E4081F4BF4
:101DE00044F0005402910AA80394049705910693C5
:101DF0000796089101A9099300F0D3FB04A90AA84A
:101E000000F0CFFB07A90AA800F0D5FB29680AA8B3
:101E1000C90800F0DAFB10210AA800F0D6FB00F098
:101E200056FC98B90AA800F0D9FB4FF098435A6CB9
:101E3000D202FCD55C6D00F04CFC04F4702420460A
:101E400012B0BDE8F0816FF07100F9E74FF0FF309C
:101E5000F6E700BF000101040001000410000020AB
:101E60002DE9F04F9BB00746894698461646DDF8A7
:101E700094B072B115683B6823F04002802A03D009
:101E8000B3F5807F40F0A6800BEB0903002400939C
:101E90000DE01546EFE795B1249A1BF80430525D2A
:101EA00001355340269A05F00F05135501344C4572
:101EB000F1D3002E00F091800020356067E0A9EB9F
:101EC000040ABAF10F0F57D91C22294613A800F0B3
:101ED0003EFC434B3A6812933B1D03930123D20807
:101EE00042F00052049305923E4A2699CDF818809C
:101EF0002AF00F0A07930892CDF824800A930B92D8
:101F00000BEB04020C9221444AF000520D9312A8EC
:101F10000E920F9103A91093119200F042FB06A9B3
:101F200012A800F03EFB0CA912A800F03AFB0FA982
:101F300012A800F040FB09A912A800F03CFB396888
:101F400012A8C90800F041FB514612A800F03DFB61
:101F500000F0BDFBC8B912A800F040FB4FF0984359
:101F60005A6CD202FCD55B6D544403F47023019388
:101F700000F0AFFB019B5BBB269B0BEB040A1C44F0
:101F8000009B9A4506D14C4691E74FF0FF301BB0BD
:101F9000BDE8F08F8DB9424601213846249BFFF7FA
:101FA000FFFE0028F3D108F1100212F8013D0133C1
:101FB000DBB213700BB99045F7D1249A1AF8013BA4
:101FC000525D0135534004F8013B05F00F05D7E79A
:101FD0001846DCE76FF01F00D9E73046D7E700BFAF
:101FE0000303000410000020FEE700F012B8FEF723
:101FF00085B9704710B50446FEF70AFF182C07D1C3
:102000002046FEF705FF2046BDE81040FEF700BF62
:1020100010BDFEF719BE4FF098435A6CD202FCD5A2
:10202000586D00F470207047C0F30C032DE9F041A7
:1020300005460F4616460BB900F006F905F50054A3
:1020400024F4FF5424F01F0405EB0608A04507D82C
:10205000324639462846BDE8F041022300F0FBB87D
:10206000204600F0F1F804F50054EFE770B40025C5
:10207000AD6A03462E69864206D86C6913449C42B9
:1020800002D370BCFFF7D0BF70BC70471FB510F50E
:10209000004F00F50043144603931AD2039BB3F597
:1020A0007E2F16D2039BC3F57E23934211D348B9EA
:1020B000836A5A69B2F5004F04D91869019100F09A
:1020C000C3F801992246039804B0BDE81040FFF719
:1020D000ABBF04B010BD036913F0FE0F0CBF0120AD
:1020E0000020704738B504460D46FEF7F9FA48B1AE
:1020F0006369012B09D12046FFF7EDFF08B1A36901
:102100002B6038BD01202C60FBE70020F9E700239D
:102110009B6A986870474FF0FF3313B5044601A8D7
:102120000193FEF7FBFB20B1019BA3422CBF0020D3
:10213000012002B010BD4FF40040704700207047EE
:10214000002070474FF480431846016881F30888E7
:1021500081F3098840688746FEE74FF40170FEF777
:10216000E9BCB1F50D7F10B504460FD34FF40D72E5
:10217000002100F0ECFA04F5DE7204F5AA7104F116
:102180002C000023BDE81040FEF7AABF40F2052056
:1021900010BD13B50446009101462C30FEF7DAFF5E
:1021A000C4F8300218B141F20703984209D1A3786C
:1021B0004BB140F2032040F20223E278002A08BF2C
:1021C000184602B010BD40F20120FAE72DE9F043B5
:1021D00087B00DF1080904460E461746002110226B
:1021E00048461D46DDF8388000F0B1FA00211C2277
:1021F000C8F80010284600F0AAFA32463B462146AD
:10220000CDF8009004F12C00FEF7A4FF23789A0784
:1022100044BF6268C8F80020DB0709D504F1080351
:1022200004F1240253F8041B934245F8041BF9D12E
:10223000237840F20640002B18BF002007B0BDE80D
:10224000F0834FF40D70704708B5FFF7E7FCB0FA64
:1022500080F0400908BD072B10B5044618460FD87A
:1022600062B142EA04039B070AD113460A4621469B
:10227000FFF7F8FCB0FA80F0400910BD0120FCE740
:102280000020FAE7012307B5002200911946FEF766
:10229000F7FD03B05DF804FB70B5D1E90152AA4225
:1022A00005D290F840302B449B1A402B10D90020C7
:1022B00012E00A6890F84040D65C90F84120013363
:1022C000224402F03F02013486548B6080F8404083
:1022D0008B689D42EDD8012070BD2DE9F8431D4665
:1022E0001746D1E901329B1A90F840200446134466
:1022F0009D420E469DF820909DF8248056D9FFF708
:10230000CBFF00285CD1132341F2020084F8463051
:10231000BDE8F88394F84120A25CFA5494F8412077
:102320000133013202F03F0284F8412094F840204A
:10233000013A84F8402094F840200AB19D42E9D146
:10234000D6E90121914201D29D4231D89D42DAD194
:1023500029463846D4F88820FFF730FAC4F88800B8
:10236000B9F1000F04D02A463946E06C00F0D6F8E7
:10237000B8F1000F08D094F843308BB12B463A46A1
:102380003946A06C00F0AFF894F8433043B1E36DE8
:10239000A26D2B449342E36524BF002384F84330AD
:1023A000636D41F203002B446365B1E70023C2E78C
:1023B0003268525CFA54B26801330132B260BFE74E
:1023C0000020A5E72DE9F743044658680E46174656
:1023D0009846002842D011F0030342D19B6A206E38
:1023E0001B6902EB000C1D1D65451CD81C3398426F
:1023F00019D28542294638BF01469C4594BFC1EB9E
:102400000C02C1EB0302081AC5F1680506EB0009CE
:10241000681820444946019200F08CF9FF21484693
:10242000019A00F094F948F20403226E9A420BD804
:1024300048F20701B818884206D99B1AF258C4F826
:1024400080204FF0FF32F2503A46D8E90035206E36
:102450003146A8470020226E3A44226603B0BDE808
:10246000F08341F20200F9E749BA89B24840C0F36B
:102470000313584003B283EA0033580100F4FF50BD
:102480009BB25840704738B5044645181046AC42D8
:1024900000D138BD014614F8010BFFF7E5FFF6E760
:1024A000F7B50446203016461D460F46019000F051
:1024B00012F9DDE90812019800F011F9002384F8FF
:1024C000587063643368C4F859307368C4F85D3079
:1024D000B368C4F861302B0C6DBA84F86530A4F889
:1024E000665003B0F0BD1FB50C46194600F1480315
:1024F000CDE90142009300F1440200F1580320307D
:10250000FFF7AEFC04B010BD10B5044600F00BF8A8
:102510002046BDE81040002100F009B800F00CB8DA
:10252000014600F016B86822002100F010B900231F
:10253000C0E900331846704707B500F12803019041
:10254000009300F108030020FFF74EFA03B05DF896
:1025500004FB02460B4600F128010830FFF758BA89
:10256000EFF3108072B6704700B962B6704770B56D
:10257000054614460E46FFF7F3FF296881EA040278
:1025800002EA06044C402C60BDE87040FFF7ECBF47
:102590004FF098435A6CD202FCD5586D00F470206D
:1025A0007047436813B9416070475B685A68012AF5
:1025B000FBD159607047836813B9816070475B68CD
:1025C0005A68012AFBD159607047C369032B9FBF2A
:1025D00000EB83020133D160C3617047C369042BF0
:1025E00015D84FF09842116CC902FCD504339B00FA
:1025F00013650168103B116041680C30116050F8A0
:10260000041C034411604FF09842984200D1704777
:1026100050F8041B1160F8E7036BDA0702D5036971
:102620005B06F9D4704710B5FFF7F6FF012200F5FD
:1026300000531A630B79044648881B0243EA80431F
:10264000487A03434878002814BF40200020034301
:10265000887A002814BF802000200343C87A00280D
:1026600014BF202000200343087B002814BF102043
:1026700000200343487B002814BF082000200343A8
:10268000887B002814BF4FF4006000200343887942
:10269000002814BF4FF4803000200343636004F52A
:1026A00080531A630A780AB90223E3600023636245
:1026B000C8790B7A497943EA8003002914BF1021B5
:1026C00000210B43A3600AB10123E36010BD002089
:1026D0007047002070472422002100F038B870B500
:1026E00015460E4624220021044600F030F825F05D
:1026F0004003802B02D0B5F5807F08D120463146BB
:1027000040F8045BEA0800F015F8002070BD6FF097
:102710001F00FBE70139024410B5904201D10020AF
:1027200005E0037811F8014FA34201D0181B10BD3A
:102730000130F2E70A44431E914200D1704710B5C0
:1027400011F8014B914203F8014FF9D110BD024439
:102750000346934200D1704703F8011BF9E70000DC
:10276000F8B500BFF8BC08BC9E467047F8B500BF7E
:10277000F8BC08BC9E467047000000006D200000B9
:10278000000000008D2000000D0A4765636B6F207C
:10279000426F6F746C6F616465722076582E595960
:1027A0002E5A5A0D0A312E2075706C6F61642067A5
:1027B000626C0D0A322E2072756E0D0A332E206562
:1027C000626C20696E666F0D0A424C203E2000024A
:1027D00005000D0A4661696C656420746F20626FA4
:1027E0006F740D0A000D0A66696C65206572726F60
:1027F00072203078000D0A53657269616C20757023
:102800006C6F61642061626F727465640D0A000D03
:102810000A53657269616C2075706C6F6164206326
:102820006F6D706C6574650D0A000D0A62656769ED
:102830006E2075706C6F61640D0A000D0A626C6F1A
:10284000636B206572726F7220307800B814B6F135
:10285000E0CFF3ADB7DD25C9FA79B713000000006A
:1028600007B0CD5E02000000000003026C2A0000E9
:102870000040000000001000F00410003D210000A6
:10288000412100002907000063210000932100007E
:1028900000000000CD2100004322000000000000E5
:1028A000610900003721000013B779FAC925DDB7A7
:1028B000ADF3CFE0F1B614B8010200000000000053
:1028C000682A000040000000000003020000000031
:1028D00000000000000000000000000000000000F8
:1028E00000000000000000000000000000000000E8
:1028F00000000000000000000400000700000D10B0
:1029000013001A202630384050000000EB17A603B1
:102910000201000003000000FA0606FA0F0400009E
:1029200003000000F40A0AF405050000010000009D
:10293000EB17A65E0A06000001000000F50909F584
:102940000307000001000000F60808F60608000072
:1029500000000000FE0101FE080800000000000069
:10296000FD0303FD0C08000000000000F90707F953
:102970001009000002000000F30B0BF3110A000025
:1029800003000000F70A0AF7120B00000300000022
:10299000FC0404FC0D0C0000030000006A09E6675B
:1029A000BB67AE853C6EF372A54FF53A510E527F70
:1029B0009B05688C1F83D9AB5BE0CD1980000000BC
:1029C0000000000000000000000000000000000007
:1029D00000000000000000000000000000000000F7
:1029E00000000000000000000000000000000000E7
:1029F000000000000000000000000000082A0000A5
:102A00001010002018000000F00F1003000000005C
:102A1000C5100020130000000900000000010000A4
:102A20000202000013000000F00F1003000000007D
:102A3000C511002013000000090000000002000082
:102A400001010000D3FFFFFFF07F1030C51200200E
:102A50000000000000000000008005402100000090
:082A60005901000035010000DE
:10400000001000201D4D0000817D0000857D000016
:10401000BFFB0200897D0000917D0000BFFB020014
:10402000BFFB0200BFFB0200BFFB0200BFFB0200A0
:10403000957D000068850300BFFB0200BFFB020006
:10404000BFFB0200BFFB0200BFFB0200ED510000FE
:10405000BFFB0200BFFB0200BFFB0200BFFB020070
:10406000BFFB0200BFFB0200A19A0000D54C00007C
:1040700083F90200BFFB0200BFFB0200BFFB02008E
:10408000BFFB0200BFFB0200BFFB0200BFFB020040
:10409000BFFB0200D9570000BFFB0200BFFB0200BC
:1040A000BFFB0200BFFB0200BFFB0200BFFB020020
:1040B000BFFB0200473B0300BFFB02007941010048
:1040C0004D3B0300493B030039390100593B0300D4
:1040D000513B03003D410100553B03007D2601009B
:1040E000B9410100BFFB0200BFFB0200A17E00003E
:1040F000BFFB0200BFFB0200BFFB0200BFFB0200D0
:10410000BFFB0200BFFB0200BFFB0200BFFB0200BF
:10411000BFFB0200BFFB0200BFFB0200BFFB0200AF
:10412000BFFB0200BFFB0200BFFB0200BFFB02009F
:10413000BFFB0200000000002DE9F04F2DED088BC1
:104140008DB09DED1E7B09EE903ADDE920430A9388
:10415000229B09EE100A8A460792069351EC170B30
:1041600053EC172BB0EE478AF0EE678A2BF076F807
:1041700080B14FF0FF3251EC180BCF4B2BF096F87B
:1041800040B94FF0FF326FF4801351EC180B2BF055
:104190006FF898B1069B514622930A9B19EE100ABC
:1041A000CDE9204319EE903A079A8DED1E8B0DB0A4
:1041B000BDEC088BBDE8F04F00F0A2B9002200234F
:1041C00051EC180B2BF054F8002800F0448118EE45
:1041D000903A18EE108A03F10049069BC9F30A5081
:1041E00013F48063A0F2FF3008BF06240B932AF07B
:1041F00063FDA1A3D3E900232AF0C8FDA0A3D3E95E
:1042000000232AF00DFCC9F313050F4645F07F513A
:1042100006460022A94B404641F440112AF0FEFB1D
:1042200099A3D3E900232AF0B1FD02460B4630469C
:1042300039462AF0F5FB2BF043F883462AF03CFD83
:1042400093A3D3E9002306460F462AF09FFD0022E0
:104250009B4B2AF0E5FB2BF033F88FA3D3E9002327
:104260000546394630462AF091FD064628460F4657
:104270002AF022FD8AA3D3E900232AF087FD024613
:104280000B46304639462AF0C9FB02460B46064625
:104290000F462AF07BFD324641EC1A0B3B46304676
:1042A00039462AF0BDFB002241EC1B0B854B51EC3B
:1042B0001A0B2AF095FE0022834B2AF0B1FB02462E
:1042C0000B4651EC1A0B2AF08BFE00227F4B2AF092
:1042D000A7FB02460B4651EC1A0B2AF081FE324630
:1042E00041EC1A0B3B4600204FF080412AF096FB30
:1042F00002460B4651EC1A0B2AF092FB02460B4683
:1043000051EC1B0B2AF06CFE05F2FF350022704BBE
:104310002AF086FB00222B052AF038FD42464B4648
:1043200006460F462AF0C2FF002840F09780CDE9EC
:1043300008670BF16303C72B069B34BF04250525D3
:10434000190521D558A3D3E90023404649462AF050
:10435000A3FF002800F0BE8055A3D3E90023404608
:1043600049462AF085FF002800F0B48000255C450E
:10437000CCBFA4EB0B000024AB46069BC8BF00F1EA
:10438000FF3443F4806306930A9B9D4238BF5E1B53
:10439000069B28BF002613F0020702D0002D18BF8D
:1043A0000026BBF1000F07D0DDE90823404649464F
:1043B0002AF016FE804689460022002351EC180B95
:1043C0002AF056FF10B109F100439946069B514669
:1043D00023F40063CDE9036319EE100A19EE903A55
:1043E000CDE90089079A029400F08AF875B3069B1C
:1043F000024613F0200F00F1010619EE903A14BFA7
:1044000045206520514619EE104AA0470523002299
:1044100005930A238BEAEB70CDE90232A0EBEB7037
:104420004FEADB73013D0193009019EE903A32465A
:10443000514619EE100A04952EF0EFF837B1079B9C
:10444000C51A079B58190A9BAB424CD80DB0BDEC5E
:10445000088BBDE8F08F59EC188BBEE60022304681
:104460003946194B2AF0BCFD0BF1FF3BCDE90801A1
:104470005FE700BFAFF30080FB799F501344D33F49
:10448000B3C8608B288AC63F61436F63A787D23F5A
:1044900071A379094F930A401655B5BBB16B024021
:1044A000EF39FAFE422EE63F2D431CEBE2361A3F6F
:1044B0000000000080842E41FFFFEF7F0000F83FE6
:1044C0000000E03F00002C400000244000001840A5
:1044D0000000F03F002C3FF457AF0B9B002B3FF444
:1044E00053AF013C50E7024619EE903A5146202066
:1044F00019EE104AA0470135A3E700BF00000000F5
:104500002DE9F04F2DED088B8FB0DDE920AB08EEE3
:10451000100A0F4608EE902A09EE103ADDE9225300
:104520005246049350465B465946249E2AF096FE16
:10453000A0B9049B2396229303232193B84B209385
:1045400018EE902A19EE103A394618EE100A0FB0FC
:10455000BDEC088BBDE8F04F2DF097BF4FF0FF3258
:104560006FF48013504659462AF082FE30B1049B06
:104570002396229304232193AA4BE0E74FF0FF32C6
:1045800050465946A84B2AF091FE70B1A74A06F052
:104590000403002B08BF0322A54B1CBF13460422B3
:1045A00004992396CDE92121C9E7504698A3D3E980
:1045B000002359462AF07AFE38B997A3D3E900239D
:1045C000504659462AF054FE98B1049B18EE902AA2
:1045D000CDE92253394619EE103A18EE100ACDE90A
:1045E00020AB24960FB0BDEC088BBDE8F04FFFF771
:1045F000A3BD00220023504659462AF039FE002868
:1046000000F081805B465246002000212AF006FA25
:10461000012382468B46059316F4806F08BF06255A
:104620003021A94606ABA5F12002B9F1090FA5EB8F
:10463000090406D909F1FF394A4503F8011BF4D1F1
:104640002024594650462AF03BFE7A4B054603EBA0
:10465000C90393ED007BB0EE47AAF0EE67AA2AF0FB
:104660002BFB02460B46504659462AF0D7F953EC2D
:104670001A2B2AF08BFB02460B4643EC1B2B2AF02D
:1046800047FE80462AF008FB02460B4651EC1B0B06
:104690002AF0C4F902460B4643EC1B2B0022664B62
:1046A0002AF004FE88B308F1010840462AF0F4FA23
:1046B00002460B4651EC1A0B2AF0E4FD10B14FF004
:1046C00000080135B9F1000F51D128462AF0F4FA5B
:1046D00002460B46504659462AF0A0F90022564B96
:1046E000804689462AF0C4FD30B100224046494642
:1046F000514B2AF0DBFD10B1E80700D5013506ABC0
:104700000A2223445AE0059086E7002251EC1B0B55
:10471000494B2AF0ADFD0028D4D1B8F1000F02D0EA
:1047200018F0010FCED008F10108CBE7B8FBF1F08B
:1047300001FB1082B8F1090F02F1300209F1FF39D3
:1047400004F1010403F8012B28D83021A14406AA62
:10475000202C11D04C4504F1010321D104F1380281
:104760000DEB02042E2204F8202C1C46C7E70A2178
:1047700006AB2344202CD9D106F00303012B06AB52
:1047800039D1049A002A36D0059A12B916F00C0FC6
:1047900002D0049A013A0492302214E08046E9E7FC
:1047A000A1541C46D4E795FBF2F102FB11553035BC
:1047B00003F8015B01340D460029DDD0202CF2D135
:1047C000DAE71A5501340499A14214D9202CF8D102
:1047D000049A0093CDE9014219EE103A18EE902A9E
:1047E000394618EE100A03962DF04FFE0FB0BDECBF
:1047F000088BBDE8F08F202CEAD0059AF2B12D216C
:1048000004F138026A4402F8201C0134E0E700BFDA
:104810000000000065CDCD410000000065CDCDC198
:10482000CA8E0300CE8E0300FFFFEF7FC58E03000C
:10483000C18E0300D88E03000000E03F710704D54D
:1048400004F138022B216A44DDE73207C0D504F1B8
:10485000380220216A44D6E770B58EB02C220021A0
:1048600003A833F01FFE64234FF0023201210893A6
:104870008DF81010CDE905230B238DF83430504B03
:104880001B88D80700F1958008464E4C16F0AAFD0B
:104890004D4B0A224D494E481A704FF42873ADF81B
:1048A00012300FF003FD206020B940F22721494863
:1048B00003F064F9052120682EF025FC20B140F2B8
:1048C0003221444803F05AF920680C2500F014FA0C
:1048D000414B206819682EF08EFC17F05DFC684390
:1048E000099017F059FC68430DEB0501079020680B
:1048F00009F0A8FF20B140F24721364803F03EF905
:104900000022364920682EF000FD20B140F24921F6
:10491000304803F033F9324E40F20353314D96F9EB
:1049200000002B8005237F28AB7001D116F054FEC8
:104930003378EB7017F030FC00EB80008000A8802B
:1049400017F02AFC0023C0004FF0FF31E8804FF041
:10495000FF30AB6018A3D3E9002316F015FF2249FE
:1049600020682FF08AF902A920682EF0ADFC20B152
:104970004FF41F71174803F001F9042220680DEB72
:1049800002012EF025FC042804D040F27F211148BA
:1049900003F0F4F801A9012030F0E3FA03F034FA4F
:1049A000012017F06DFE2BF0E0FA17F0A1FE16F0D3
:1049B00085FE0EB070BD00BF0A0020FF420300005C
:1049C000A46300205C5C00202A69002011B401006F
:1049D00078120020E3AD03002C1100203169002083
:1049E0007B160020485C0020F1B4010010B5054C96
:1049F000237833B9044B13B1044800E000BF01230E
:104A0000237010BD382A00200000000060B60300AB
:104A100008B5034B1BB10349034800E000BF08BDC4
:104A2000000000003C2A002060B60300A3F5803A95
:104A3000704700BF174B002B08BF134B9D46FFF775
:104A4000F5FF00218B460F461348144A121A33F023
:104A500029FD0E4B002B00D098470D4B002B00D0AA
:104A600098470020002104000D000D48002802D0C6
:104A70000C4800E000BF2AF017FE200029002AF0B1
:104A800040FF2AF0FDFD00BF00000800000000000C
:104A90000000000000100020A8240020A4690020CD
:104AA000000000000000000010B51E4C2BF03EF985
:104AB000236F23F0070343F0020323672BF03DF934
:104AC000D4F82031002023F0070343F00103C4F899
:104AD0002031D4F8403123F0030343F00103C4F83C
:104AE0004031D4F8603123F0030343F00103C4F8EC
:104AF0006031D4F8403223F0030343F00103C4F8DB
:104B00004032D4F8003223F0070343F00103C4F825
:104B10000032D4F8083223F0070343F00103C4F84D
:104B2000083210BD0080005007B501A801F08AFDD1
:104B30009DF80530012B27D1214A936DDB0313D457
:104B4000536B23F4FF0323F4FE4343F4BC1343F4F9
:104B5000A0635363136B23F4704343F44043136324
:104B6000136B43F4E06313639DF8043063B94FF0B3
:104B700000531B68134B1B68134B1B68134B1B68BC
:104B8000134B1B68134B1B68134AD2F8803043F059
:104B90000303C2F8803002F07FF902F03BF902F023
:104BA00041F9FFF781FF02F023F900F0E7FA02F084
:104BB0008DFE00F04BFE03B05DF804EB04F0CAB8C4
:104BC00000C00050004000200080002000C00020F5
:104BD00000000120004001200080005030B5184D39
:104BE00095B00DAC0FCD0FC495E80700154B84E8C8
:104BF0000700154A0021CDE903230623102209A846
:104C0000CDE9053133F04EFC4FF480210F4B0DAA56
:104C1000CDE907130B238DF824300C238DF82530B4
:104C20000B4B07A90A9320230B9301238DF83130F6
:104C3000084B0948009303AB02F0ACFB15B030BD44
:104C40004C8503002100050000800550248005509C
:104C500048640020542A0020AC2A0020831E012B27
:104C600010B512D8012910D8114B04221B69052157
:104C70000020C3F3401301F055FB0E4B1B6818686E
:104C8000A8B1BDE81040436A18478B1E012B0CD811
:104C900001280CD8BDE810400022054B05211B69F6
:104CA0001046C3F3401301F03DBB0129E5D910BD07
:104CB00000C00350BC10002008B50449044804F0AB
:104CC000F3F8BDE80840FFF789BF00BFA41000203B
:104CD000A42A002001482BF051BD00BFAC2A0020BF
:104CE000014B1A6A18681047AC2A0020014B18784B
:104CF000704700BF6864002038B505462BF047F9BF
:104D0000044628B9284609F0D3FD034B1C7038BD72
:104D100004240220F9E700BF6864002008B500F011
:104D20002DF8124B12498B4212D30020114B12491D
:104D30008B4218D3FFF77EFE186850F8224058685F
:104D400040F82240013298688242F5D30C33EAE7FA
:104D50000022F8E71C6844F8220001325C68A24295
:104D6000F8D30833E4E70022F8E700BF68B6030091
:104D700074B6030074B6030074B603006FF001004C
:104D8000104B114A10B59A60D3F888200F4942F4AD
:104D90007002C3F8882001F50052106641F2FF70DE
:104DA00050660220C3F8D000BFF34F8FBFF36F8F60
:104DB00008244FF440330648C0F88041D3600460B3
:104DC0000B6110BD00ED00E00040000000800044D9
:104DD00000E100E0014B1868704700BFC4100020DC
:104DE000014B1860704700BFC4100020084B1B6FB8
:104DF00003F00703022B04D0032B05D0012B05D0B1
:104E0000FEE7044B18687047034BFBE70348704705
:104E100000800050C4100020C8100020002D310177
:104E200008B5FFF7E3FF054B1B6FC3F301330133F5
:104E3000B0FBF3F0024B186008BD00BF00800050CB
:104E4000C01000200048704700B4C404014B18682B
:104E5000704700BFC8100020054B1860054B1B6F42
:104E600003F00703032B01D1FFF7DABF704700BF40
:104E7000C81000200080005000487047002D31010C
:104E8000174B9868C0F304400C2822D8DFE800F0E4
:104E9000092121212121071719211B1D1F0011485C
:104EA00070479B6803F04073B3F1807F13D0B3F178
:104EB000007F12D00C4A002B08BF104670470B48E9
:104EC00070470B4870470B4870470B4870470B48BA
:104ED0007047002070470A4870470A48704700BF73
:104EE0000040015A405DC60000093D000024F40066
:104EF000C0EA210180BA8C010048E801005A620230
:104F000080841E0040420F00014B1868704700BFAC
:104F1000CC100020BFF34F8F0549064BCA6802F43E
:104F2000E0621343CB60BFF34F8F00BFFDE700BFCC
:104F300000ED00E00400FA0500239B6AB3F5804F02
:104F400003D21968064A914203D00023037083609C
:104F50007047012202709A689B694260F7E700BFC0
:104F600007B0CD5E73B5494B04461A781AB10222D8
:104F70001A7002B070BDCDE900220028F9D00126D8
:104F80001E702AF0F3FE424D424B18600CF050FAAE
:104F90002B785BB900F05AFC40B93F4808233F4AE0
:104FA0003F49006808F064FE00B92E703D4B5A6816
:104FB000E2603D4A9A601A6E22605A6E6260D3F8CF
:104FC0007021A2601B6E5C0440D5384AD368D807B4
:104FD000FCD4374B1A68531C3DD04FF480139340D8
:104FE000344A13660423334C23664FF480632366EC
:104FF0002AF009FE01300ED02AF005FE40F201131E
:10500000984208D04FF4804323664FF40043236650
:105010001023C4F870311023264C4FF080422366D1
:105020004FF400536846236601A9226663662AF09E
:10503000CFFD009B2366019B63662B78002B98D0E5
:10504000164B1A6822665B68636692E71A4AD36851
:10505000D907FCD4BDE7194B1B78002BC2D1184BE4
:105060005A68144B12B94FF480121A66154A5268E6
:1050700012B94FF400121A66134B5B68002BB1D1C2
:105080004FF480020B4B1A66ACE700BF6B64002044
:1050900069640020E82A0020D8100020E02A0020BF
:1050A000007108000080004455CEAC0000000440B0
:1050B000D010002000900044000004506A640020DA
:1050C0000080055000C005500000065038B5224D44
:1050D00004462B78012B02D001232B7038BD002809
:1050E000FCD02AF090FD013009D02AF08CFD40F26E
:1050F0000113984203D0194AD368DB07FCD4226815
:10510000174B1A6662685A66A268C3F87021E26893
:10511000D40744BF00229A60124B1A68013213D19F
:10512000114A127882B911494968C80748BF1A6004
:105130000F4A5268D10744BF01221A600D4A5268D3
:10514000D20744BF02221A600CF07AF90A4B1868A1
:105150002AF012FE0023C0E76B6400200000044028
:1051600000800044D01000206A64002000800550B8
:1051700000C0055000000650E82A002070B5002449
:10518000A36AB3F5804F22D21A68124B9A421ED1FD
:10519000114E337813F0FD0517D11048FFF7E2FEEA
:1051A00008214FF480330E4A0E48C2F88011C360C4
:1051B00011600D4A1361AB6ADB69984704460748E2
:1051C000FFF784FF0CB901233370204670BD4FF404
:1051D0008174FAE707B0CD5E6A640020D02A00200F
:1051E00000E100E000A000440090004413B51F4B14
:1051F0001B7803B9FEE700231D4CCDE900336A4656
:1052000008231C49206808F033FDF0B91A4AD2F887
:105210004031D2F840211F2B4FF0010310D9203A22
:105220009340019A1343019308236A461149206869
:1052300008F0D4FC4FF00053104A1A60FFF76AFEE2
:105240009340009A13430093EEE70D4B9842F1D13F
:10525000094AD2F84031D2F840211F2B4FF0010308
:1052600002D9203A9340DEE79340ECE76B640020DC
:10527000D810002000710800008000440B020FF0DD
:105280000BE000F005490A681318054883428CBFFB
:105290004FF0FF320B601046704700BFD410002063
:1052A0000080012008B5032101230422002001F021
:1052B00039F800202AF078FD0122244B0C20C3F895
:1052C0004424234AD2F8803043F00303C2F88030EC
:1052D00000F02AFD1F4B00F5D520D3F8F02000F296
:1052E000FC4042F00102C3F8F020D3F8FC2042F069
:1052F0008072C3F8FC20184AA3F55D431A60174B6F
:105300000222B0FBF3F0164B01381861C3F8F0200D
:105310004FF48072C3F804234FF06043114A002019
:10532000C3F8B02F104AC3F8802ED3F8002E42F4F1
:105330008072C3F8002EFF2283F82020D3F8002EBD
:1053400022F48072C3F8002E08BD00BF00D00350C5
:105350000080005000ED00E0FF030040F8590D0010
:10536000000004E055CEACC5090001004FF06043D9
:10537000D3F8802E30B5D20715D501240B4D8440CB
:10538000D5F8FC2042F08072C5F8FC20D3F8002E3E
:105390002243C3F8002E53F82020002AF0D003F84F
:1053A0002010002030BD1120FCE700BF00ED00E020
:1053B0002DE9F04F9A46564B85B01B7806460F46AE
:1053C0001546DDF83C909DF844B0DDF85080002B88
:1053D00000F08D80072A00F28C800E9B002B00F0DD
:1053E0008880B9F1000F00F08480129BB3F5006F44
:1053F0007FDC012802D1109B002B7AD0454B03EBB8
:1054000005131B7B002B76D0434C102200216846ED
:1054100033F048F804EB45141022002F59D13946D7
:10542000204633F03FF843F210036380BBF1000FD6
:1054300003D1E37843F00303E370374A0E9B02EB9A
:10544000451CCCE90193129B6901013BC3F30A009F
:105450009DF84C30012E03F003034FEA836343EAC7
:10546000001E53582D48CDF800A000EA03004EEA74
:105470000003535041D113230CF1100ECCF80C3023
:105480009CE80F008EE80F006FF00301DCF81C2091
:10549000109B61F39F02012FCCF81C20CCF8143034
:1054A00003D1CCF81890CCF804300027194A290110
:1054B00002EB051342F80180159A28465A606946A6
:1054C00022469F605E7300F0BBFF384605B0BDE822
:1054D000F08F0021204632F0E5FF4FF444736380E3
:1054E000BBF1000FA9D1E37843F03003A4E70C48E7
:1054F000ECE70C48EAE70C48E8E7B8F1000FD4D134
:105500009CF8023068F304138CF80230CDE700BF3A
:105510006C640020EC2A00206C2B00200F80FFF32D
:10552000028000F0018000F0078000F038B5124BD7
:1055300005461B78DBB1E0B12AF018FC0F4A0023C6
:105540001146147B54B92B6001251A0101EB03139A
:105550001D738C502AF010FC204638BD0133082BF7
:1055600002F11002EDD12AF007FC0548F5E70548E5
:10557000F3E70548F1E700BF6C640020EC2A002047
:10558000048000F0028000F0018000F013B52AF0E2
:10559000EDFB00230B4A147B7CB90133082B02F18D
:1055A0001002F8D1019000F0FFFE074B01981C702B
:1055B0002AF0E2FB204602B010BD2AF0DDFB0348D2
:1055C000F9E700BFEC2A00206C640020058000F0A1
:1055D0000D4B10B51B78044693B1072812D82AF05A
:1055E000C5FB0A4B03EB04131A7B2AB100241C737E
:1055F0002AF0C2FB204610BD2AF0BEFB0448FAE7A1
:105600000448F8E70448F6E76C640020EC2A002020
:10561000068000F0028000F0018000F0154B13B509
:105620001868002301908DF804302AF09FFB124B7C
:105630001C7824B12AF0A0FB104802B010BD012252
:105640001A702AF099FB0E4B01A81C731C7783F883
:105650002C4083F83C4083F84C4083F85C4083F84E
:105660006C4083F87C4008238DF8073000F0BEFEC4
:105670002046E2E7B88503006C640020038000F058
:10568000EC2A00200A4A08B512785AB107280BD82C
:10569000084A02EB00131B7B43B1002100F098FE87
:1056A000002008BD0448FCE70448FAE70448F8E78E
:1056B0006C640020EC2A0020028000F0018000F0E1
:1056C000078000F00A4A08B512785AB107280BD8AB
:1056D000084A02EB00131B7B43B1012100F078FE66
:1056E000002008BD0448FCE70448FAE70448F8E74E
:1056F0006C640020EC2A0020028000F0018000F0A1
:10570000078000F00A4A08B5127852B107280AD873
:10571000084A02EB00131B7B3BB100F0DFFE0020C8
:1057200008BD0548FCE70548FAE70548F8E700BF6B
:105730006C640020EC2A0020028000F0018000F060
:10574000078000F00D4B1B7893B1072812D889B160
:105750000B4B03EB00131B7B73B10A4B1A6D012338
:1057600003FA00F010401ABF00200B700870704759
:105770000548704705487047054870476C6400202D
:10578000EC2A002000000450028000F0018000F0AC
:10579000078000F00B4A10B512780C4662B107285A
:1057A0000CD859B1084A02EB00131B7B43B100F03F
:1057B000A7FE2070002010BD0448FCE70448FAE76B
:1057C0000448F8E76C640020EC2A0020028000F016
:1057D000018000F0078000F02DE9F843174B1F6DA2
:1057E0005B6D1F4000D5FEE701260025144CDFF855
:1057F0005480DFF85490374217D02368C8F85060BF
:105800009BB1A168284601316268A1609847637B1B
:10581000012B0AD148B909EB45131A7B60F3410209
:105820001A731A7F60F341021A770135082D4FEA87
:10583000460604F11004DED1BDE8F88300000450F0
:10584000EC2A0020002004506C2B0020024B196829
:10585000024B186808F0ECB8DC100020D8100020CB
:1058600037B5920004460D46019232F061FE431CAA
:105870000BD060B929462046019A32F0DCFD0028A1
:10588000044808BF002003B030BD0348FBE70348CD
:10589000F9E700BF10E000F021E000F024E000F0A4
:1058A00010B5044632F03CFE431C10D088B900F01D
:1058B000D7FE234620F003002044984201D1002067
:1058C00010BD53F8042B0132F7D00348F8E7034822
:1058D000F6E70348F4E700BF0EE000F021E000F037
:1058E00024E000F008B52AF032FA014B186008BD38
:1058F000AC320020014B18682AF02DBAAC320020DF
:1059000041F6713310B5104C104AA0428CBF4FF4D1
:1059100080140024D169D363936801F4803123F4A7
:105920004013234393600A4B98420A4BD3F8182242
:105930008CBF42F0020222F00202C3F8182211B119
:105940000022024BDA6310BD005A620200000350CD
:1059500080F0FA0200C007502E4B98424AD022D85D
:105960002D4B984240D014D82C4B984239D00AD8AD
:105970002B4B984232D02B4B98422FD02A4B984237
:105980002CD000207047294B9842FAD1284B186F31
:105990007047284B98422AD0274B9842F1D1244B8C
:1059A000D3F880007047254B98422BD009D8244B60
:1059B000984223D0234B9842E3D11D4BD3F88C005F
:1059C0007047214B984221D003F5740303F510531F
:1059D0009842D6D1164BD3F898007047144B986D67
:1059E0007047134B586E7047114B586F7047104BF0
:1059F000986F70470E4BD3F8840070470C4BD3F868
:105A0000880070470A4BD3F890007047084BD3F8D2
:105A1000940070470048E8010024F400C0CF6A00F9
:105A200080841E0000093D0040420F00405DC6001A
:105A30000080E00FC0EA210180BA8C01007E56038D
:105A400080D54302006CDC020090D00338B5134BC4
:105A50000546D3F820010C4600F00700042804D8BE
:105A6000DFE800F01A0A0E1216000023184605B1EE
:105A7000286004B1236038BDFFF7ACF90423F6E7D2
:105A8000FFF7E4F90323F2E7FFF7FAF90523EEE75E
:105A9000FFF7F2F90223EAE70123E8E7008000506C
:105AA00037B50C460021124A0191D2F880210546F3
:105AB00002F00302022A0ED0032A11D0012A14D1C7
:105AC00001A8FFF7C3FF0D230DB1019A2A6004B1AD
:105AD000236003B030BDFFF7D3F905230190F3E74E
:105AE000FFF7CAF902230190EEE70B46ECE700BF8F
:105AF0000080005038B5104B0546D3F840310C46B5
:105B000003F00303022B0BD0032B0DD0012B0FD17D
:105B10002AF058F8082305B1286004B1236038BD85
:105B2000FFF7F2F90723F6E72AF04FF80923F2E727
:105B300001230020EFE700BF0080005038B5104B74
:105B40000546D3F860310C4603F00303022B0BD05B
:105B5000032B0DD0012B0FD12AF034F8082305B107
:105B6000286004B1236038BDFFF7CEF90723F6E7BC
:105B70002AF02BF80923F2E701230020EFE700BF0A
:105B80000080005038B5144B0546D3F800020C468F
:105B900000F00700042804D8DFE800F01B0A0E120A
:105BA00016000023184605B1286004B1236038BDF3
:105BB0002AF008F80823F6E7FFF7A6F90723F2E72B
:105BC0002AF003F80923EEE7FFF72AF90C23800AED
:105BD000E9E70123E7E700BF0080005038B5144B28
:105BE0000546D3F808020C4600F00700042804D844
:105BF000DFE800F01B0A0E1216000023184605B15C
:105C0000286004B1236038BD29F0DCFF0823F6E7E3
:105C1000FFF77AF90723F2E729F0D7FF0923EEE728
:105C2000FFF7FEF80C23800AE9E70123E7E700BF4E
:105C30000080005038B5104B0546D3F840320C4672
:105C400003F00303022B0BD0032B0DD0012B0FD13C
:105C500029F0B8FF082305B1286004B1236038BDDE
:105C6000FFF752F90723F6E729F0AFFF0923F2E720
:105C700000231846EFE700BF0080005038B5104BF6
:105C80000546D3F800310C4603F00303022B0BD07A
:105C9000032B0DD0012B0FD1FFF7D8F8032305B14B
:105CA000286004B1236038BDFFF72EF90723F6E71B
:105CB00029F086FF0623F2E701230020EFE700BF6B
:105CC0000080005038B50C4605462AF040F8064BD7
:105CD0009A6A82EA040101EA050454409C62BDE824
:105CE00038402AF038B800BF00C00050032814D054
:105CF00005D8012805D0022809D0002005E00F288A
:105D0000FBD1084B186FC0F3013001307047054BD1
:105D1000D3F89000C0F30460F7E7024B186FC0F3AC
:105D20008020F2E7008000501FB500230193252852
:105D300017D8DFE800F0131A1D262B353A50555AB4
:105D40005F646977161A3F1616551A262B26351AE0
:105D50005026773A3A3A3A2626265A5FFFF746F80F
:105D60000190019805B05DF804FBFFF759F8F7E7DB
:105D7000FFF73CF802460220FFF7B8FFB2FBF0F055
:105D8000EEE7FFF74DF802460320F5E7FFF748F886
:105D900002460320FFF7AAFFB2FBF0F04008DFE75E
:105DA000002101A8FFF77CFEDBE7002101A8FFF737
:105DB0004DFED6E702934FF0E0231B695B0705D544
:105DC000FFF72EF80290029B0193CAE703A902A8ED
:105DD000FFF790FEF7E7002101A8FFF78BFEC0E771
:105DE000002101A8FFF7AAFEBBE7002101A8FFF7E9
:105DF000C9FEB6E7002101A8FFF7F0FEB1E70021D8
:105E000001A8FFF73BFFACE7094BD3F8803003F064
:105E10000303022BA9D0032B01D00020A0E7FFF73A
:105E20002FF89DE7002101A8FFF704FF99E700BFC5
:105E30000080005008B50120FFF776FFBDE808405C
:105E4000034988428CBF02210121032000F002B8DF
:105E500080F0FA02032810B50C4627D004D8012898
:105E600004D0022817D010BD0F28FCD129F052FF12
:105E700029F058FF124B013C196F21F4405141EABF
:105E800004341C67FEF7CCFF0021FFF739FDBDE8A5
:105E90001040FFF7CFBF0A4B013CD3F8901021F020
:105EA000F85141EA0464C3F89040DCE7044B013C3C
:105EB000196F21F4806141EA84241C67D3E700BF95
:105EC000008000501FB500230193252821D8DFE86A
:105ED00000F013202020202A2F454A4F54595E718C
:105EE00020203420204A202020202A204520712FE5
:105EF0002F2F2F2020204F54314B1B6F03F007030F
:105F0000013B032B05D8DFE803F00C02080A042349
:105F10000193019805B05DF804FB0323F8E706231D
:105F2000F6E70223F4E7002001A9FFF7B9FDF0E747
:105F3000002001A9FFF78AFDEBE702934FF0E02371
:105F40001B695B0705D5FEF76BFF0B230393039BD0
:105F5000DEE703A902A8FFF7CDFDF8E7002001A9BD
:105F6000FFF7C8FDD5E7002001A9FFF7E7FDD0E75F
:105F7000002001A9FFF706FECBE7002001A9FFF7EB
:105F80002DFEC6E7002001A9FFF778FEC1E70C4B04
:105F9000D3F8803003F00303022B03D0032B05D08A
:105FA0000023B5E7FEF73CFF0B23B1E7FEF768FFE0
:105FB0000523ADE7002001A9FFF73CFEA9E700BFDC
:105FC0000080005038B50546FFF7C6FC214B04465B
:105FD0005A68012A04D120494A609A699207FCD183
:105FE0000020FFF76FFF042803D129F093FE29F06A
:105FF00099FE1A4A24F04073954221D0184A9542DE
:1060000021D0184AD16811F0060FFBD19068936037
:10601000916803F4F81301F4F8118B4216D1284665
:10602000FEF7DEFE0020FFF74DFF042810D1FEF73B
:10603000F7FE0021FFF764FCBDE83840FFF7FABE29
:1060400043F00073DDE743F08073DAE79060E9E73F
:1060500038BD00BF00C0015000E0015040420F00B9
:1060600080841E000000015070B504460020FFF738
:1060700029FF03287CD045F60E030221414AC2F8CD
:106080008030414B9962012103F580539962936DF1
:10609000D903FCD4D4E900131B0543EA0163E17B77
:1060A00094F822500B43217B94F8236043EA014388
:1060B000617B43EA0133A17B43EA81131361916958
:1060C000D4E904031B0643EA806301F000410B435B
:1060D000A17EE07E0B43217E43EA0143617E43EAD9
:1060E00001239361136AE26923F00D03002A0CBFB8
:1060F0000021082143EA020343EA8003214A43EADC
:106100000103136294F820304FEA431331D1906AAF
:1061100094F8211020F0330043EA0113034343F0C5
:1061200001039362194B916D33EA0101FBD1022106
:10613000154B9962936D5B00FCD41069A36820F441
:10614000700040EA035010614FF000420E4B9A611C
:106150001DB9022203F580539A6216B901220C4B35
:106160009A6294F824301BB1064B0A4AC3F8802087
:1061700070BD916A21F0330131430B4343EA45037B
:106180009362EEE700C0005000D0005003000140D1
:1061900000E00050F1A7FFFF13B5184CA16AA36DF2
:1061A00013F4803F18BF0122154B18BF9A620222D8
:1061B0009A62A36D5B00FCD4124BA26993F9003084
:1061C00022F47F020344000222F47F4280B283F370
:1061D0000803104340EA0340A06102200191FFF749
:1061E00071FDA36D019913F4803F05D0012002B029
:1061F000BDE81040FFF766BD02B010BD00C0005002
:1062000000D000506D64002037B5104CA16AA36D1A
:1062100013F4803F18BF01220D4B18BF9A6202226F
:106220009A62A36D5B00FCD40220A5690191FFF77F
:1062300049FDA36D019913F4803FC5F3072502D0F2
:106240000120FFF73FFD284603B030BD00C00050DD
:1062500000D00050014B93F9000070476D6400209E
:1062600001231048104A816A9362836D03F003038F
:10627000032BFAD1022393620A4B9A6D5000FCD48F
:1062800001209A6D084A10659A6D9207FCD4054B5F
:106290009A6D9007FCD59A6D9207FCD50320FFF705
:1062A00011BD00BF00C0005000D00050014B18804D
:1062B000704700BFF81500200A4A10B5136904465C
:1062C00043F00403136102F09BFF29F058FD30BF37
:1062D00029F056FD02F0A8FF1CB9BDE81040FEF7FA
:1062E0009FBD10BD00ED00E0084A10B513690446DB
:1062F00043F00403136102F083FF30BF02F094FF08
:106300001CB9BDE81040FEF78BBD10BD00ED00E0EC
:10631000034A0179D36E23F030030B43D3667047F1
:1063200000400050F8B504460D461F4616464AB1D7
:1063300001238B403021194A01FB0022FFB141F2B9
:106340001001535004EB4403072D4FF00F014FEAA7
:10635000031317D8A80006FA00F281401048184429
:1063600029F011FD56B9012130230C4801FA05F539
:1063700003FB040077B141F21003C550F8BD42F2AF
:106380001001DEE7A5F10800800006FA00F2814066
:106390000448E4E742F21003EFE700BF00C00350F7
:1063A00004C003500CC003504FF40012064BC3F856
:1063B0008020BFF34F8FBFF36F8F0022FF21034B6D
:1063C0005A6599625A60704700E100E0000004508D
:1063D000044A054B002918BF1346012202FA00F0B7
:1063E00018607047402004504010045030B50478C5
:1063F00045788178C27801200F4B41EA0541240697
:1064000058609C609961FF21996200219963196429
:106410004FF0004159654FF0FF314FF4001003F584
:106420000053196505491301DBB2C1F8800181F8F9
:106430001533086030BD00BF0000045000E100E0EB
:106440002DE9F04101250C46C3B2DFF888E0D1F810
:1064500000809D408F7ACB7A94F80DC0097BCEF8EE
:1064600050500EF5005E4EF820804FF0300E184E62
:106470001B050EFB006043EA074343EA415322F049
:106480000302C0F860C0C365026729F06FFC736D3A
:106490002B437365237A13B1336C2B433364637AD4
:1064A00013B1B36B2B43B3632279A37943EA02435D
:1064B000084A93616179E37943EA014306498B61B4
:1064C000034B55639D64BDE8F04129F055BC00BF06
:1064D00000000450002004500010045010B50124A6
:1064E000C0B2844029F042FC044B5A6D22EA0402F7
:1064F0005A659C62BDE8104029F03EBC0000045083
:1065000010B50124C0B2844029F030FC074BDA6A90
:10651000224209D15B6B34EA03030CBF012400243F
:1065200029F02AFC204610BD0024F9E700000450A1
:1065300041F67132034BDA63012203F50053DA604E
:10654000704700BF0000035041F671320121044B37
:10655000DA6303F50052D1600022DA63704700BFAE
:1065600000000350014BD3F89400704700400050E6
:10657000CB784A7810B55B010C7843EA82030A793C
:10658000234343EA02130C22424302F1B042136355
:10659000012C02BF8A78024B43F8202010BD00BFB7
:1065A000D080035008B54FF0B0435A6802B960B1CB
:1065B0005B680BB129F0FFFB4FF0B04130B1012017
:1065C000074B586029F0F7FBC86008BD29F0F3FBC2
:1065D0000223CB6029F0EFFB0122024B5A60F4E763
:1065E00000100058002000584FF0B0435B6870B5B1
:1065F0000BB129F0E0FB0121104B457859608378FD
:106600000679002BC37814BF02240024002B14BF8A
:10661000042200224379DB0043EA06132B43234381
:1066200013434FF0B0429360054B59600378002B41
:1066300014BF0B460223D36070BD00BF002000587A
:1066400000100058054B5B69C3F38512827003F09C
:106650003F021B0B42700370704700BF00C0075021
:106660000120034B9B680A3303F01F0398407047D7
:106670000080E00F0D4B984208D1A3F50033C3F81A
:106680008411C36D43F08003C3657047084B984283
:1066900004D1A3F51033C3F89411F2E7054B9842E7
:1066A00004BFA3F52033C3F8A411EAE70080055026
:1066B00000C005500000065070B5054616461C4641
:1066C00019B90320FFF730FB0146402C1BD003D83B
:1066D000DCB1202C1BD070BD602CFCD1042303FB4B
:1066E00006F2560806EB4113B3FBF2F3094A203BCE
:1066F00002EAC303AA6822F06002AA60AA681443EF
:10670000AC60EB61E7E70623E9E71023E7E708233E
:10671000E5E700BFF8FF7F00012200F5805310B5C8
:106720005A6040F6AA6341F2050243610023124910
:106730008360C365C26000F500520361C361C36436
:1067400091640E498365884206D00D4CA04203D067
:1067500004F58044A0420BD18842036506D0084B63
:10676000984203D003F58043984201D1002343654A
:106770000123536010BD00BFFFFF010000800550E2
:1067800000C0055070B50D46FFF7C6FF012300F5A8
:1067900080567360AB7C04461BB1836843F0804332
:1067A0008360EB7C1BB12046297DFFF763FF2A8ABB
:1067B0006B7B20461343EA891343E3602B7BD5E9C7
:1067C0000112FFF779FF6B7D1BB1A36843F480339F
:1067D000A360AB7D1BB1A36843F40043A360EB7DD2
:1067E0002A7E1B07120502F4E00203F0E043134384
:1067F000A3656A7E931E012B214B20D89C421AD0A0
:1068000003F580439C4218D003F580439C420CBFA3
:1068100002234FF0FF3341F2AC5102205B0103F140
:10682000A04303F570335850032A23D10423F365A2
:106830002B78636170BD0023EDE70123EBE79C42F9
:1068400014D0104B9C4213D003F580439C420CBFE4
:1068500002234FF0FF3342F2AC5102205B0103F1FF
:10686000A04303F570335850012ADEE70023F2E716
:106870000123F0E7042204F50053DA65D8E700BFEE
:106880000080055000C0055038B50446054D2CF079
:10689000C3FC0FCC0FC594E80F0085E80F00002063
:1068A00038BD00BF6033002047F6FF739A42F0B551
:1068B00066D0022966D8344DCF0015F8313005EB8B
:1068C000C100012B847813D10025C3781B1B9D4286
:1068D00002D3E018C0B2F0BD591B4668A3EB5101CA
:1068E00036F911609642D4BF0D4601F1FF33EEE751
:1068F00040680028EFD0B0F90030934204DBB0F9D3
:1069000002309342B8BF134682883D44FF2A19BF24
:10691000C8214FF0280CB0F90610B0F908C0A1EB5F
:1069200003020CBF0126002692FBFCF26D78324474
:1069300012B2954201DD002A01DA6A1E12B24FF44A
:106940007A7700EBC206F188B668013213FB016169
:1069500012B221EAE1715C319542B1FBF7F104DD3D
:1069600000EBC206B6888E42EBD200EBC20232F8D0
:10697000040C884228BF0846A04238BF2046A9E739
:10698000FF20A8E70020A6E7603300200229F0B529
:1069900053D82B4800EBC10410F83110636801296B
:1069A0000FD1E078A478904294BFC4EB0001C4EB0F
:1069B0000201001BCAB28242C8BF002233F9120092
:1069C000F0BD002B39D0A178914202D3B3F9020077
:1069D000F6E7E178B3F900009142F1D9998864783B
:1069E000A1F1FF06013C714203F10405E4B27141DB
:1069F00003F10C071FFA82FCCEB2B44216D805EBA5
:106A0000C1014FF47A756A43B1F902404968521ADC
:106A100004EBD47102EB610292FBF4F29042CFDB03
:106A2000B3F902009042CBDC10B2C9E737F831E08D
:106A30004E1CE645E3D33146DEE70248C0E700BF1F
:106A4000603300200080FFFF08B50448FFF71CFFFB
:106A5000BDE8084001202CF003BC00BF18900300E3
:106A60007FB51422002101A831F01CFD044B01A9BF
:106A70004FF0FF3002932CF034FC07B05DF804FBBC
:106A8000006A18002DE9F0418CB08846DDE91276E5
:106A90001D460446002847D0002945D0002F43D08A
:106AA000002E41D013F00F033ED120482049A360AF
:106AB000002A18BF0146E361C4E90013404609A952
:106AC00029F02EFB68BB2046099929F090F9294648
:106AD000204629F08CF96946404629F0C0FB00BBEE
:106AE0006946204629F06FF9404603A929F0C2FB08
:106AF000B8B9204603A929F066F906970127204670
:106B000045F0005506A90797089529F05CF920463D
:106B100009A909960A970B9529F05FF9204629F0F3
:106B200089FA0CB0BDE8F0812120FAE700010104E8
:106B3000000100047FB50E461D460446F0B102B9BF
:106B4000E3B901230192029345F00053039300231C
:106B50000B4AA360C4E90023E361204601A929F0A0
:106B600032F93146204629F042F92046294629F0DB
:106B70003EF9204629F05EFA04B070BD2120FBE703
:106B8000000009430F4B984209D010D80E4B984291
:106B900005D020F48070A3F5806398420FD10B8854
:106BA000B3F5105F0CBF00206FF085007047074BF6
:106BB0009842F4D020F40070A3F58073EDE76FF0F5
:106BC000850070470010C004004440040012C00457
:106BD0002DE9F04F93B09346DDE91E759846DDE947
:106BE0001C2381468A46209E29B96FF086042046E0
:106BF00013B0BDE8F08FBBF1000FF6D00FB9002D38
:106C0000F3D10AB9002BF0D116B9219B002BECD19E
:106C1000229B002BE9D049464046FFF7B3FF0446CC
:106C20000028E4D10146202202A831F03BFC2022BA
:106C300021460AA831F036FC02A829F00EFA0028F5
:106C40003DD15A46514648460AAB29F081FB0446DD
:106C50000028CCD10A9829F037FB04460028C6D179
:106C600015B9229B1860C2E7B74210D27B199E4229
:106C70000DD2219B9D42B8D82A463946304631F084
:106C8000F7FB174B984518D06FF08504AFE7144B0E
:106C90009845F9D1219B9D42A7D815F00F08A4D1A2
:106CA000CDE900762B4642460AA902A8FFF7EAFE84
:106CB000074638B9229B1D6099E73746EDE76FF02C
:106CC000920494E741463046219A31F0EBFB229B37
:106CD000012FC3F80080F2D16FF08B0487E700BF6B
:106CE000004440042DE9F04F93B08146DDE91C7566
:106CF000934698468A461E9E29B96FF08604204620
:106D000013B0BDE8F08F002AF7D00FB9002DF4D1F1
:106D100016B91F9B002BF0D1209B002BEDD04946CC
:106D20004046FFF72FFF04460028E8D10146202205
:106D300002A831F0B7FB202221460AA831F0B2FBAD
:106D400002A829F08AF9002849D15A4651464846F6
:106D50000AAB29F0FDFA04460028D0D10A9829F0A0
:106D6000B3FA04460028CAD115B9209B1860C6E7BB
:106D7000B74210D27B199E420DD21F9B9D42BCD8B8
:106D80002A463946304631F073FB184B98450BD0F4
:106D90006FF08504B3E7154B9845F9D11F9B9D42D1
:106DA00003D96FF08904AAE7374615F00F08A4D17C
:106DB0002B460122CDE900760AA902A8FFF762FE60
:106DC000209B1D600546002899D0414630461F9AF9
:106DD00031F068FB209B012DC3F8008002D06FF0DA
:106DE00092048CE76FF08B0489E700BF00444004F5
:106DF00013B50024064A6846536F43F001035367F6
:106E000000948DF80440FFF783FA204602B010BDCD
:106E10000040005008B50248FFF7D4F8002008BD34
:106E200000B4C40430B58BB06C46174D0FCD0FC401
:106E30000FCD0FC495E8030084E80300134BD3F88B
:106E40004C21120318D4D3F85041E4B28DF8194004
:106E5000FFF700FA204480F308008DF818000C4872
:106E6000FDF7FAFF6846FFF7FFF84FF4FA70FFF7F7
:106E70001DFA00200BB030BD064B1C884FF6FF7387
:106E80009C4208BF8C24E1E7E08503000080E00F0E
:106E900000F049020001E00F6FF00402502110B52C
:106EA0000A480B4C12F0800FD3B21BBF03F00F0344
:106EB000043BA3181B1802F101020CBF83F8001356
:106EC00019763D2AEED1002010BD00BF00ED00E094
:106ED00000E100E010B5044628F039FF024B1C60C9
:106EE00028F039FF002010BD8033002010B528F0B5
:106EF0002EFF034B1C6828F02EFF204610BD00BF5C
:106F00008033002013B513460C4618B90192FFF7E1
:106F1000EDFF019B01462246044805F0BFFB002817
:106F2000D4BF3720002002B010BD00BF49040300C9
:106F300010B5002400F024F80348044B846043603B
:106F4000FFF7C8FF204610BD84330020516F0000BA
:106F500013B5064C23780093054B1B8829F091FA52
:106F600010B923780133237002B010BD6E64002085
:106F7000FA150020014B188000207047FA150020F8
:106F800008B5074B1A6842B9012208201A6028F098
:106F90006AFE0449044801F087FF002008BD00BFD5
:106FA00098330020101100209033002030B5144693
:106FB000054687B0104629F0C3FA6369024683424A
:106FC0003CBFD4E903315B181B1A7BB10F4928463B
:106FD00003910021CDE90131012304940093D4E908
:106FE000001328F04CFE002007B030BD012262766D
:106FF00094F82D20002AF6D084F835301321E36967
:10700000204698472046636A9847ECE7AD6F00003A
:107010002DE9F04788B0044688461746994628F07F
:10702000A5FE8246002F7AD0237E03F0FF02002BBC
:1070300000F0A280204629F083FA6669B04205D1AB
:10704000637ED4E903521544AD1B01E0F9D9851BD9
:10705000BD4228BF3D4628F089FE94F82D300646F3
:10706000002B6DD12A464046616931F0F4F963691D
